:107800000C94343C0C94513C0C94513C0C94513CE1
:107810000C94513C0C94513C0C94513C0C94513CB4
:107820000C94513C0C94513C0C94513C0C94513CA4
:107830000C94513C0C94513C0C94513C0C94513C94
:107840000C94513C0C94513C0C94513C0C94513C84
:107850000C94513C0C94513C0C94513C0C94513C74
:107860000C94513C0C94513C11241FBECFEFD8E036
:10787000DEBFCDBF11E0A0E0B1E0E8EEFDE702C061
:1078800005900D92A230B107D9F722E0A2E0B1E055
:1078900001C01D92AD30B207E1F70E94043D0C9487
:1078A000F23E0C94003C9091C00095FFFCCF809379
:1078B000C6000895CF93C82F8595859585958595A4
:1078C000805DCF70CA303CF0C95A0E94533C8C2F67
:1078D000CF910C94533CC05DF8CFCF92DF92EF92E2
:1078E000FF92C12CD12C76018091C00087FF07C088
:1078F0008091C600FF90EF90DF90CF9008958FEFBA
:10790000C81AD80AE80AF80A81E4C81682E4D80638
:107910008FE0E806F10440F3E0910201F0910301E9
:107920000995E2CFCF930E946D3CC82F0E94533C33
:10793000C13624F0C7558C2FCF910895C033DCF3A6
:10794000C053F9CFCF930E94923CC82F0E94923C23
:10795000C295C07F8C0FCF910895CF93C82FC1508F
:1079600010F4CF9108950E946D3CF9CFCF93C82FAA
:107970000E946D3C803251F484E10E94533C8C2F74
:107980000E94533C80E1CF910C94533C80910401C0
:107990008F5F80930401853031F4E0910201F09112
:1079A0000301CF910994CF9108950E946D3C8032DC
:1079B00031F484E10E94533C80E10C94533C80916B
:1079C00004018F5F80930401853029F4E091020166
:1079D000F091030109940895815008F408952D9AB7
:1079E0002FEF31EE94E0215030409040E1F700C09D
:1079F00000002D982FEF31EE94E021503040904060
:107A0000E1F700C00000E8CF94B714BE8091600099
:107A10008861809360001092600091FD05C0E09144
:107A20000201F09103010995F0E0E0E0E49180E1CA
:107A30008093C4001092C50088E18093C10086E065
:107A40008093C2005098589A259A81E00E94EC3C9D
:107A5000FF24F3940E946D3C803319F40E94D53CBE
:107A6000F9CF8133F1F40E946D3C803209F0ACC152
:107A700084E10E94533C81E40E94533C86E50E94CD
:107A8000533C82E50E94533C80E20E94533C89E4CF
:107A90000E94533C83E50E94533C80E50E94533C86
:107AA00059C1803439F40E946D3C8638B8F20E9486
:107AB0006D3CD4CF8134A1F40E946D3C803821F418
:107AC00082E00E94B63CC6CF813811F481E0F9CF44
:107AD000823811F480E1F5CF8839F1F583E0F1CFF8
:107AE000823421F484E10E94AD3CB8CF853411F496
:107AF00085E0F9CF982F9D7F903509F4AFCF813580
:107B000031F40E94D53C88E080936000FFCF85353A
:107B100049F40E946D3C809306010E946D3C809365
:107B200007019CCF8635D1F40E946D3C803389F4E7
:107B30000E946D3C0E946D3CD82F0E946D3C8EE1EE
:107B4000DD2309F4BECF85E9D13009F4BACF8FE047
:107B5000B8CF83E00E94AD3C80E0B3CF843609F01B
:107B6000CAC00E946D3C809309020E946D3C8093C4
:107B7000080280910C028E7F80930C020E946D3C63
:107B8000853429F480910C02816080930C0208E016
:107B900011E05801D12CC12C80910802909109026A
:107BA000C816D906F0F00E946D3C803209F00CC175
:107BB00080910C02209106013091070180FF34C0B2
:107BC000220F331F309307012093060190E080E0DD
:107BD00020910802309109028217930758F084E13E
:107BE0005DCF0E946D3CF50181935F01FFEFCF1ADD
:107BF000DF0AD2CFF999FECF20910601309107011B
:107C000032BD21BDF80121918F0120BDFA9AF99A68
:107C100020910601309107012F5F3F4F30930701FC
:107C2000209306010196D4CF80910701880F880B1D
:107C30008F2180930B02220F331F30930701209373
:107C400006018091080280FF09C08091080290918E
:107C5000090201969093090280930802F894F99919
:107C6000FECF1127E0910601F0910701C8E0D1E0B5
:107C70008091080290910902103091F40091570010
:107C800001700130D9F303E000935700E8950091AB
:107C9000570001700130D9F301E100935700E895D6
:107CA000099019900091570001700130D9F301E05B
:107CB00000935700E8951395103498F01127009120
:107CC000570001700130D9F305E000935700E895A3
:107CD0000091570001700130D9F301E10093570082
:107CE000E8953296029709F0C7CF103011F002964E
:107CF000E5CF112474CF843709F052C00E946D3C47
:107D0000809309020E946D3C8093080280910601D5
:107D100090910701880F991F9093070180930601A6
:107D20000E946D3C90910C028534C1F49160909357
:107D30000C020E946D3C803209F08CCE84E10E94DE
:107D4000533C10E000E0809108029091090208176E
:107D5000190730F080E10E94533C7CCE9E7FE7CF34
:107D600080910C02E0910601F091070180FF14C0A0
:107D7000F999FECFF2BDE1BDF89A80B50E94533C5F
:107D800080910601909107010196909307018093DD
:107D900006010F5F1F4FD7CF81FDF2CF8491EECF49
:107DA000853779F40E946D3C803271F484E10E9441
:107DB000533C8EE10E94533C85E90E94533C8FE086
:107DC0006DCE863709F4C8CE809104018F5F809311
:107DD0000401853009F03ECEE0910201F0910301EB
:087DE000099538CEF894FFCF9D
:027DE800800019
:040000030000780081
:00000001FF
